:020000040000FA
:1000000002002700000080FB120051B9000302002B
:100010001175828E7583007400120033758203752A
:100020008300740012003375D0007581BF759F0086
:10003000020008C09FF59FE473D09F22D083D08236
:10004000C09FE493C0E0740193C0E0740293F59FF5
:100050002279012212003C5A00007C007D00801EA3
:10006000E82401F8E93400F9C3E89417E99402A2FE
:10007000D265D03340EAEC2401FCED3400FDC3EC42
:100080009AED9B50067800790080DD02003943FE2E
:1000900002C2917AE87B03120054D2917AE87B0382
:0500A00012005480EC89
:0400000500000027D0
:00000001FF
